S01100007072616374696361312E737265639B
S11300000C942A000C9449000C945D000C9471002B
S11300100C9447000C9447000C9447000C94470040
S11300200C9447000C9447000C9447000C94470030
S11300300C9447000C9447000C9447000C94470020
S11300400C9447000C9447000C9447000C94470010
S11300500C94470011241FBECFE5D8E0DEBFCDBF0E
S113006010E0A0E6B0E0E4E3F1E002C005900D92F8
S1130070A437B107D9F720E0A4E7B0E001C01D928E
S1130080A637B207E1F70E947B000C9498000C9409
S113009000001F920F920FB60F9211248F939F931B
S11300A081E090E090937500809374009F918F910C
S11300B00F900FBE0F901F9018951F920F920FB6BE
S11300C00F9211248F939F9382E090E09093750098
S11300D0809374009F918F910F900FBE0F901F908B
S11300E018951F920F920FB60F9211240F900FBE06
S11300F00F901F901895789480EE8BBF8FE485BF86
S113010080E484BF8FEF84BBE0917400F0917500AC
S1130110EE0FFF1FE05AFF4F808185BB2FE78AE176
S113012096E0215080409040E1F700C00000ECCF01
S1070130F894FFCF6D
S11301344000790024003000190012000300780004
S1070144000018009B
S9030000FC
