S01100007072616374696361312E737265639B
S11300000C942A000C9449000C945D000C9471002B
S11300100C9447000C9447000C9447000C94470040
S11300200C9447000C9447000C9447000C94470030
S11300300C9447000C9447000C9447000C94470020
S11300400C9447000C9447000C9447000C94470010
S11300500C94470011241FBECFE5D8E0DEBFCDBF0E
S113006010E0A0E6B0E0E0ECF1E002C005900D92F3
S1130070A637B107D9F720E0A6E7B0E001C01D928A
S1130080A837B207E1F70E948B000C94DE000C94B1
S113009000001F920F920FB60F9211248F939F931B
S11300A081E090E090936100809360009F918F9134
S11300B00F900FBE0F901F9018951F920F920FB6BE
S11300C00F9211248F939F938FEF9FEF9093610072
S11300D0809360009F918F910F900FBE0F901F909F
S11300E018951F920F920FB60F9211248F939F931E
S11300F08FEF9FEF909377008093760081E090E0FC
S113010090936100809360009F918F910F900FBE38
S11301100F901F901895789480EE8BBF8FE085BF69
S113012080E484BF8FEF84BB81E090E09093610012
S1130130809360004AE050E06FEF7FEFE09176003B
S1130140F0917700EE0FFF1FEE59FF4F808185BBC2
S11301502FE78AE196E0215080409040E1F700C00B
S1130160000080917600909177008930910559F4D0
S11301708091600090916100019789F470937700F9
S1130180609376000CC0892B51F4809160009091AB
S11301906100019621F450937700409376002091FA
S11301A07600309177008091600090916100820F19
S11301B0931F9093770080937600C0CFF894FFCF7D
S11301C001004000790024003000190012000300EF
S10901D078000000180095
S9030000FC
