S01100007072616374696361312E737265639B
S11300000C942A000C9449000C945D000C9471002B
S11300100C9447000C9447000C9447000C94470040
S11300200C9447000C9447000C9447000C94470030
S11300300C9447000C9447000C9447000C94470020
S11300400C9447000C9447000C9447000C94470010
S11300500C94470011241FBECFE5D8E0DEBFCDBF0E
S113006010E0A0E6B0E0E8E4F3E002C005900D92F1
S1130070A437B107D9F720E0A4E7B0E001C01D928E
S1130080A038B207E1F70E9438010C94A2010C9445
S113009000001F920F920FB60F9211248F939F931B
S11300A082E090E090937700809376009F918F9107
S11300B00F900FBE0F901F9018951F920F920FB6BE
S11300C00F9211248F939F9381E090E09093770097
S11300D0809376009F918F910F900FBE0F901F9089
S11300E018951F920F920FB60F9211248F939F931E
S11300F0109275001092740081E090E09093770064
S1130100809376009F918F910F900FBE0F901F9058
S113011018959C0168EE73E00E947A0170937F0049
S113012060937E00C90164E670E00E947A01F62FB4
S1130130E72F6093780070937900C9016AE070E05A
S11301400E947A01B62F60937A0070937B0090939B
S11301507D0080937C00A9014456510944385340E2
S113016050F48B2F972F6AE070E00E947A019093ED
S11301707B0080937A00283E33400CF46FC080915A
S11301807A0090917B0064E670E00E947A012AE094
S113019030E0B9010E947A0190937B0080937A0049
S11301A08F2F9E2FB9010E947A019093790080933A
S11301B0780054C05BBBE0917C00F0917D00EE0FB1
S11301C0FF1FE05AFF4F608165BBEFEF60E772E00D
S11301D0E15060407040E1F700C000004BBBE0918B
S11301E07A00F0917B00EE0FFF1FE05AFF4F608111
S11301F065BBEFEF60E772E0E15060407040E1F70B
S113020000C000003BBBE0917800F0917900EE0F54
S1130210FF1FE05AFF4F608165BBEFEF60E772E0BC
S1130220E15060407040E1F700C000002BBBE0915A
S11302307E00F0917F00EE0FFF1FE05AFF4F6081B8
S113024065BBEFEF60E772E0E15060407040E1F7BA
S113025000C00000019709F0ADCF07C085E090E031
S113026050E840E430E220E1A5CF80E090E008953A
S11302708FEF84BB80EF8ABB8FE08BBB80EE8BBF9C
S11302808FE485BF789481E090E090937700809329
S11302907600C1E0D0E080917400909175000E94D6
S11302A089008091740090917500009729F4D0938F
S11302B07700C093760007C02091760030917700D4
S11302C02130310531F401969093750080937400C8
S11302D005C0019790937500809374008091740019
S11302E09091750080319742B4F21092750010928B
S11302F07400D1CF97FB072E16F4009407D077FD36
S113030009D00E948E0107FC05D03EF4909581959A
S11303109F4F0895709561957F4F0895AA1BBB1B4D
S113032051E107C0AA1FBB1FA617B70710F0A61BF1
S1130330B70B881F991F5A95A9F780959095BC0112
S10B0340CD010895F894FFCFEC
S113034840007900240030001900120003007800EE
S10703580000180085
S9030000FC
