S01100007072616374696361312E737265639B
S11300000C942A000C9449000C945D000C9471002B
S11300100C9447000C9447000C9447000C94470040
S11300200C9447000C9447000C9447000C94470030
S11300300C9447000C9447000C9447000C94470020
S11300400C9447000C9447000C9447000C94470010
S11300500C94470011241FBECFE5D8E0DEBFCDBF0E
S113006010E0A0E6B0E0E8EFF2E002C005900D92E7
S1130070A637B107D9F720E0A6E7B0E001C01D928A
S1130080A837B207E1F70E9409010C947A010C9495
S113009000001F920F920FB60F9211248F939F931B
S11300A081E090E090936100809360009F918F9134
S11300B00F900FBE0F901F9018951F920F920FB6BE
S11300C00F9211248F939F938FEF9FEF9093610072
S11300D0809360009F918F910F900FBE0F901F909F
S11300E018951F920F920FB60F9211248F939F931E
S11300F08FEF9FEF909377008093760081E090E0FC
S113010090936100809360009F918F910F900FBE38
S11301100F901F901895CF92DF92FF920F931F9329
S1130120CF93DF938C012AE030E0B9010E945201A1
S1130130FC01CB01B9010E945201EC01C80164E643
S113014070E00E945201CB01B9010E9452019C014E
S1130150C80168EE73E00E94520142E050E010E1F1
S1130160CF01880F991F8E599F4F6894FF24F5F88B
S1130170CC0FDD1FCE59DF4F00E4D901AA0FBB1FFE
S1130180AE59BF4F30E8FB01EE0FFF1FBF016E59A0
S11301907F4F6B0112BBFC01208125BBFFEF26E7DB
S11301A061E0F15020406040E1F700C00000F2BA85
S11301B0288125BB7FEFE6E7F1E07150E040F04095
S11301C0E1F700C0000002BB2C9125BB2FEF66E7CE
S11301D071E0215060407040E1F700C0000032BB84
S11301E0F601208125BBFFEF26E761E0F1502040B6
S11301F06040E1F700C000004150510959F680E029
S113020090E0DF91CF911F910F91FF90DF90CF90FD
S11302100895789480EE8BBF8FE085BF80E484BF1F
S11302208FEF84BB80EF81BB81E090E0909361000D
S113023080936000CFE0D7E20FEF1FEF809176004C
S1130240909177000E948B008091760090917700C6
S11302508F3027E2920759F48091600090916100F9
S1130260019789F410937700009376000CC0892BD2
S113027051F48091600090916100019621F4D09333
S11302807700C093760020917600309177008091BA
S1130290600090916100820F931F90937700809388
S11302A07600CCCF97FB072E16F4009407D077FD89
S11302B009D00E94660107FC05D03EF49095819513
S11302C09F4F0895709561957F4F0895AA1BBB1B9E
S11302D051E107C0AA1FBB1FA617B70710F0A61B42
S11302E0B70B881F991F5A95A9F780959095BC0163
S10B02F0CD010895F894FFCF3D
S11302F801004000790024003000190012000300B6
S10903087800000018005B
S9030000FC
