S00C00006D61696E2E7372656373
S11300000C942A000C943F000C943F000C943F0085
S11300100C943F000C943F000C943F000C943F0060
S11300200C943F000C943F000C943F000C943F0050
S11300300C943F000C943F000C943F000C943F0040
S11300400C943F000C943F000C943F000C943F0030
S11300500C943F0011241FBECFE5D8E0DEBFCDBF16
S113006010E0A0E6B0E0EEE0F2E002C005900D92F0
S1130070AE36B107D9F70E94F2000C9405010C9436
S11300800000DE9A0000DE980895CF93DF93D82F06
S1130090662311F0DC9A01C0DC98DD988AB38F6086
S11300A08ABBCBB3C07F8D2F82958F708C2B8BBB7B
S11300B00E944100DF70DC2BDBBB0E944100CF605B
S11300C0CBBBDF91CF910895882311F0DC9A01C056
S11300D0DC98DD9A8AB3807F8ABBDE9A000029B35C
S11300E0DE980000DE9A000099B32295207F892FC4
S11300F08F70DE98822B089580E00E94640088232C
S1130100DCF300C000C080E00E9464000895CF9337
S1130110C82F0E947C0060E08C2F0E944500CF9184
S1130120089581E00E9487000895CF93C82F0E940C
S11301307C00CA3049F4803410F080E001C080E4CF
S113014080580E94870004C061E08C2F0E94450003
S1130150CF910895CF93DF93EC012196FC01808128
S1130160882329F00E94950089918111FBCFDF91AA
S1130170CF910895CF93C82F9AB39F679ABB8FE905
S11301809FE00197F1F700C00000D99AD89A0E9425
S1130190410081EE94E00197F1F700C000000E9455
S11301A0410095E19A95F1F700000E94410085E134
S11301B08A95F1F70000D8980E94410095E19A953C
S11301C0F1F7000088E20E94870088E00E9487001F
S11301D00E94910086E00E9487008C2F0E94870075
S11301E0CF9108958FE00E94BA000E94910080E6AA
S11301F090E00E94AA002FEF81EE94E0215080400D
S11102009040E1F700C00000F0CFF894FFCF6B
S111020E496E6772657365206461746F000049
S9030000FC
