S00C00006D61696E2E7372656373
S11300000C942A000C943F000C943F000C943F0085
S11300100C943F000C943F000C943F000C943F0060
S11300200C943F000C943F000C943F000C943F0050
S11300300C943F000C943F000C943F000C943F0040
S11300400C943F000C943F000C943F000C943F0030
S11300500C943F0011241FBECFE5D8E0DEBFCDBF16
S113006011E0A0E6B0E0EAE3F6E002C005900D92EC
S1130070A232B107D9F70E94AD010C941B030C9472
S11300800000DE9A0000DE980895CF93DF93D82F06
S1130090662311F0DC9A01C0DC98DD988AB38F6086
S11300A08ABBCBB3C07F8D2F82958F708C2B8BBB7B
S11300B00E944100DF70DC2BDBBB0E944100CF605B
S11300C0CBBBDF91CF910895882311F0DC9A01C056
S11300D0DC98DD9A8AB3807F8ABBDE9A000029B35C
S11300E0DE980000DE9A000099B32295207F892FC4
S11300F08F70DE98822B089580E00E94640088232C
S1130100DCF300C000C080E00E9464000895CF9337
S1130110C82F0E947C0060E08C2F0E944500CF9184
S11301200895611104C080580E9487000895805486
S11301300E948700089581E00E9487000895CF936C
S1130140C82F0E947C00CA3049F4803410F080E04B
S113015001C080E480580E94870004C061E08C2FB5
S11301600E944500CF910895CF93DF93EC0121962F
S1130170FC018081882329F00E949F0089918111CC
S1130180FBCFDF91CF910895CF93C82F9AB39F6788
S11301909ABB8FE99FE00197F1F700C00000D99A5C
S11301A0D89A0E94410081EE94E00197F1F700C0D3
S11301B000000E94410095E19A95F1F700000E9429
S11301C0410085E18A95F1F70000D8980E9441002A
S11301D095E19A95F1F7000088E20E94870088E093
S11301E00E9487000E949B0086E00E9487008C2F5B
S11301F00E948700CF9108958FE087BB8FEF81BB6A
S113020012BA8FE00E94C400089581E088BB86B3CF
S1130210807F90E095958795959587959595879599
S1130220959587958130910509F467C082309105D1
S113023009F466C08430910509F465C0089709F48F
S113024065C082E088BB86B3807F90E095958795F2
S11302509595879595958795959587958130910581
S113026009F457C08230910509F456C084309105D1
S113027009F455C0089709F455C084E088BB86B3D7
S1130280807F90E095958795959587959595879529
S1130290959587958130910509F447C08230910581
S11302A009F446C08430910509F445C0089709F45F
S11302B045C088E088BB86B3807F90E0959587959C
S11302C09595879595958795959587958130910511
S11302D0C1F182309105C1F184309105C1F10897D3
S11302E0C9F12FE788E391E0215080409040E1F785
S11302F000C0000084E190E0089581E390E0089557
S113030082E390E0089583E390E0089581E490E02F
S1130310089584E390E0089585E390E0089586E3EA
S113032090E0089582E490E0089587E390E00895D2
S113033088E390E0089589E390E0089583E490E0F1
S1130340089583E290E0089580E390E008958AE2BE
S113035090E0089584E490E008950E94FC0080E613
S113036090E00E94B4002FEF8EE994E22150804087
S11303709040E1F700C000000E949B00E12CF12CAA
S1130380A12CB12CC12CD12C00E010E0D0E00F2E18
S1130390F0EC5F2EF02D88248394912C68944424EF
S11303A041F8612C712C6894332432F80E940501C1
S11303B0C82F843109F42CC10E949F00CC3359F416
S11303C00E949B0021E0E216F10409F42BC1062DE2
S11303D0172DD0E08FC0CD3461F50E949B0081E7DA
S11303E090E00E94B4008FEF94E423E381509040A6
S11303F02040E1F700C000000E949B0081E890E0EB
S11304000E94B40061E080E00E9491008FE890E0D7
S11304100E94B4008FEF93ED20E381509040204080
S1130420E1F700C000000E949B00062D172DD0E0CC
S1130430FFC00F5F1F4FDC0F81E0E816F10409F0E5
S113044059C00430110509F0F0C05D1227C00E94A4
S11304509B0088E990E00E94B4009FEF29E688E1C0
S1130460915020408040E1F700C000000E949B00B2
S11304709FEFA91AB90A81EA90E00E94B4002FEF15
S113048089E698E1215080409040E1F700C00000E7
S11304900E949B00062D172DD0E0C7C021E0A216B4
S11304A0B10409F0C5C00E949B0085EB90E00E9456
S11304B0B4008FEF99E628E1815090402040E1F7A5
S11304C000C000000E949B0080E690E00E94B400FF
S11304D08FEF99E628E1815090402040E1F700C079
S11304E000000E949B005D2EE62CF72C062D172D94
S11304F0D0E08EC0E114F10409F08AC00430110583
S113050009F086C05D1218C00E949B0084EC90E044
S11305100E94B40081E082BB8FEF93ED20E3815011
S113052090402040E1F700C0000012BA0E949B00F6
S1130530062D172DD0E06CC00E949B0083ED90E047
S11305400E94B40042BA8FEF93ED20E381509040B3
S11305502040E1F700C000000E949B008FEFC81A02
S1130560D80A93E0C916D1040CF43FC00E949B0042
S113057084EE90E00E94B40061E080E00E9491006B
S11305808EEE90E00E94B40032BA2FEF8DE399E42E
S1130590215080409040E1F700C000000E949B0081
S11305A087EF90E00E94B40061E080E00E94910037
S11305B088E790E00E94B4002FEF80E990E5215095
S11305C080409040E1F700C000000E949B0088E05A
S11305D091E00E94B4002FEF83ED90E3215080401E
S11305E09040E1F700C0000013C083E191E00E9455
S11305F0B4002FEF83ED90E3215080409040E1F769
S113060000C000000E949B0012BA062D172DD0E3F3
S11306102FEF81EE94E0215080409040E1F700C03C
S11306200000C4CE062D172DD0E0E82CF92CF0CF15
S10D0630E82CF92CEDCFF894FFCF6D
S113063A494E4752455345204C4120434C41564567
S113064A0043414D42494F20444520434C415645BD
S113065A00494E534552544520434C4156450041A6
S113066A4E544552494F5200434F52524543544FF8
S113067A00494E5345525445204E55455641204350
S113068A4C41564500434C41564520475541524436
S113069A41444100434C41564520434F525245433D
S11306AA544100434C41564520494E434F5252450A
S11306BA4354410045584345534F20444500494E4D
S11306CA54454E544F5300504F52204641564F52B0
S11306DA2043414D4249450050524553494F4E45E6
S11306EA204D00494E475245534520434C415645F7
S10506FA0000FA
S9030000FC
