S00C00006D61696E2E7372656373
S11300000C942A000C943F000C943F000C943F0085
S11300100C943F000C943F000C943F000C943F0060
S11300200C943F000C943F000C943F000C943F0050
S11300300C943F000C943F000C943F000C943F0040
S11300400C943F000C943F000C943F000C943F0030
S11300500C943F0011241FBECFE5D8E0DEBFCDBF16
S113006010E0A0E6B0E0E6E5F7E002C005900D92EE
S1130070AC3FB107D9F70E94AD010C94A9030C94CD
S11300800000DE9A0000DE980895CF93DF93D82F06
S1130090662311F0DC9A01C0DC98DD988AB38F6086
S11300A08ABBCBB3C07F8D2F82958F708C2B8BBB7B
S11300B00E944100DF70DC2BDBBB0E944100CF605B
S11300C0CBBBDF91CF910895882311F0DC9A01C056
S11300D0DC98DD9A8AB3807F8ABBDE9A000029B35C
S11300E0DE980000DE9A000099B32295207F892FC4
S11300F08F70DE98822B089580E00E94640088232C
S1130100DCF300C000C080E00E9464000895CF9337
S1130110C82F0E947C0060E08C2F0E944500CF9184
S11301200895611104C080580E9487000895805486
S11301300E948700089581E00E9487000895CF936C
S1130140C82F0E947C00CA3049F4803410F080E04B
S113015001C080E480580E94870004C061E08C2FB5
S11301600E944500CF910895CF93DF93EC0121962F
S1130170FC018081882329F00E949F0089918111CC
S1130180FBCFDF91CF910895CF93C82F9AB39F6788
S11301909ABB8FE99FE00197F1F700C00000D99A5C
S11301A0D89A0E94410081EE94E00197F1F700C0D3
S11301B000000E94410095E19A95F1F700000E9429
S11301C0410085E18A95F1F70000D8980E9441002A
S11301D095E19A95F1F7000088E20E94870088E093
S11301E00E9487000E949B0086E00E9487008C2F5B
S11301F00E948700CF91089587B98AE18A95F1F723
S113020000C0369A349BFECF349A84B195B10895D8
S1130210EF92FF921F93CF93DF93C4E0D0E00F2EB1
S1130220F9E0EF2EF12CF02D0E943603B7010E9465
S1130230C202805D8CB9180F2FEF81EE94E021503B
S113024080409040E1F700C00000219769F72FEF4C
S113025081EE94E0215080409040E1F700C000001E
S1130260812FDF91CF911F91FF90EF90089589E145
S113027089B910BC1BB888E18AB986E880BD0895A5
S11302808FE087BB8FEF84BB12BA8FE00E94C4005B
S1130290089581E088BBB49930C0B59931C0B6994E
S11302A032C0B79933C082E088BBB49932C0B599E3
S11302B033C0B69934C0B79935C084E088BBB499CB
S11302C034C0B59935C0B69936C0B79937C088E0FF
S11302D088BBB49936C0B59937C0B69938C0B799B8
S11302E039C02FEF83EF91E0215080409040E1F737
S11302F000C0000084E190E008958EE590E0089548
S113030084E390E0089587E390E0089583E290E029
S1130310089581E390E0089585E390E0089588E3EB
S113032090E0089580E390E0089582E390E00895DA
S113033086E390E0089589E390E008958AE290E0EE
S1130340089583E390E008958EE390E008958CE3AC
S113035090E008958DE490E0089517B883E886B995
S11303600E9437010E94400184E690E00E94B4009C
S11303702FEF89E698E1215080409040E1F700C0DA
S113038000000E949B0080E790E00E94B40061E0BE
S113039080E00E94910080E890E00E94B4002FEF7A
S11303A083ED90E3215080409040E1F700C00000CD
S11303B00E949B0087E00E94FC000E943B0300E037
S11303C010E00F2EF6ECFF2EF02DD0E0D12CE12C16
S11303D00F2EFDE0CF2EF02D0E944901C82F84314D
S11303E009F4C6C08AE20E949F00CC3331F40E9413
S11303F09B000D2D1E2DD0E0BBC0CD3409F06CC088
S11304000E949B0081E990E00E94B40061E080E0DA
S11304100E94910081EA90E00E94B4002FEF83EDE6
S113042090E3215080409040E1F700C000000E941A
S11304309B000E949B002FEF81EE94E021508040AE
S11304409040E1F700C000000E949B000E949B00C6
S11304500E940801F82E2FEF83ED90E32150804095
S11304609040E1F700C00000CCB82FEF84E39CE09B
S1130470215080409040E1F700C000000E949B00A2
S113048082EB90E00E94B40061E080E00E94910061
S113049080EC90E00E94B4002FEF8DE399E42150AA
S11304A080409040E1F700C000000E949B008BEC6C
S11304B090E00E94B40061E080E00E9491002FEF80
S11304C089E698E1215080409040E1F700C00000A7
S11304D00D2D1E2DD0E04CC00F5F1F4FDC0F0430DC
S11304E0110509F045C0FD1225C00E949B008CED4A
S11304F090E00E94B40081E085BB2FEF87E893E190
S1130500215080409040E1F700C0000015BA0E94DD
S11305109B0080E790E00E94B40061E080E00E94CC
S1130520910080E890E00E94B400FD2E0D2D1E2D58
S1130530D0E01EC00E949B008BEE90E00E94B400AD
S11305402FEF83ED90E3215080409040E1F700C00D
S113055000000E949B0080E790E00E94B40061E0EC
S113056080E00E94910080E890E00E94B400D0E016
S11305702FEF81EE94E0215080409040E1F700C0DD
S113058000002ACF97FB072E16F4009407D077FDBE
S113059009D00E94D60207FC05D03EF490958195BF
S11305A09F4F0895709561957F4F0895AA1BBB1BBB
S11305B051E107C0AA1FBB1FA617B70710F0A61B5F
S11305C0B70B881F991F5A95A9F780959095BC0180
S11305D0CD0108958F929F92AF92BF92CF92DF92F6
S11305E0EF92FF92CF93DF93EC01688179818A8146
S11305F09B81611571058105910521F464E279ED12
S11306008BE597E02DE133EF41E050E00E94460393
S113061049015A019B01AC01A7EAB1E40E946503B8
S11306206B017C01ACEEB4EFA50194010E9473034D
S1130630DC01CB018C0D9D1DAE1DBF1DB7FF03C09A
S11306400197A109B04888839983AA83BB839F77C4
S1130650DF91CF91FF90EF90DF90CF90BF90AF905C
S11306609F908F9008950E94EA02089580E690E09A
S11306700E94EA020895A0E0B0E0809360009093A5
S11306806100A0936200B09363000895052E97FB68
S11306901EF400940E945D0357FD07D00E94780366
S11306A007FC03D04EF40C945D03509540953095AF
S11306B021953F4F4F4F5F4F0895909580957095CA
S11306C061957F4F8F4F9F4F08950E949A03A59F76
S11306D0900DB49F900DA49F800D911D1124089539
S11306E0B7FF0C9465030E946503821B930B089566
S11306F0A1E21A2EAA1BBB1BFD010DC0AA1FBB1F22
S1130700EE1FFF1FA217B307E407F50720F0A21B93
S1130710B30BE40BF50B661F771F881F991F1A9400
S113072069F760957095809590959B01AC01BD012A
S1130730CF010895A29FB001B39FC001A39F700D84
S1130740811D1124911DB29F700D811D1124911DD5
S10907500895F894FFCFA8
S1130756010000004269656E76656E69646F21006A
S113076650726573696F6E65204D20706172610009
S11307766F6274656E657220756E61206B65792E85
S113078600457370657265206D69656E7472617378
S1130796006C61206B657920736520656E766961EE
S11307A62E00436C61766520656E7669616461002E
S11307B6636F6E20657869746F2100496E67726590
S11307C67365206C6120636C61766500436C6176A9
S11307D66520636F72726563746100436C6176654C
S10F07E620696E636F72726563746100B9
S9030000FC
