S00C00006D61696E2E7372656373
S11300000C942A000C9447000C9447000C9447006D
S11300100C9447000C9447000C9447000C94470040
S11300200C9447000C9447000C9447000C94470030
S11300300C9447000C9447000C9447000C94470020
S11300400C9447000C9447000C9447000C94470010
S11300500C94470011241FBECFE5D8E0DEBFCDBF0E
S113006010E0A0E6B0E0EEE0F7E002C005900D92EB
S1130070A43DB107D9F720E0A4EDB0E001C01D9282
S1130080AA3DB207E1F70E94FF010C9485030C948A
S11300900000DE9A0000DE980895CF93DF93D82FF6
S11300A0662311F0DC9A01C0DC98DD988AB38F6076
S11300B08ABBCBB3C07F8D2F82958F708C2B8BBB6B
S11300C00E944900DF70DC2BDBBB0E944900CF603B
S11300D0CBBBDF91CF910895882311F0DC9A01C046
S11300E0DC98DD9A8AB3807F8ABBDE9A000029B34C
S11300F0DE980000DE9A000099B32295207F892FB4
S11301008F70DE98822B089580E00E946C00882313
S1130110DCF300C000C080E00E946C000895CF931F
S1130120C82F0E94840060E08C2F0E944D00CF9164
S11301300895611104C080580E948F00089580546E
S11301400E948F00089581E00E948F000895CF934C
S1130150C82F0E948400CA3049F4803410F080E033
S113016001C080E480580E948F0004C061E08C2F9D
S11301700E944D00CF910895CF93DF93EC01219617
S1130180FC018081882329F00E94A70089918111B4
S1130190FBCFDF91CF910895CF93C82F9AB39F6778
S11301A09ABB8FE99FE00197F1F700C00000D99A4C
S11301B0D89A0E94490081EE94E00197F1F700C0BB
S11301C000000E94490095E19A95F1F700000E9411
S11301D0490085E18A95F1F70000D8980E9449000A
S11301E095E19A95F1F7000088E20E948F0088E07B
S11301F00E948F000E94A30086E00E948F008C2F33
S11302000E948F00CF910895CF92DF92EF92FF92D8
S11302100F931F93CF93DF9304ED10E00F2EFAEDAD
S1130220EF2EF0E0FF2EF02DE8010F2EF9E0CF2E97
S1130230D12CF02D0E941203B6010E949E02805D13
S113024089932FEF81EE94E0215080409040E1F7B4
S113025000C00000CE15DF0569F7F80181918F0118
S11302608CB9FFEF21EE84E0F15020408040E1F7AB
S113027000C000000E151F0581F7DF91CF911F917B
S11302800F91FF90EF90DF90CF9008958FE087BBA0
S11302908FEF84BB8FE00E94CC00089589E189B977
S11302A010BC1BB888E18AB986E880BD089581E056
S11302B088BB86B3807F90E09595879595958795C3
S11302C095958795959587958130910509F467C033
S11302D08230910509F466C08430910509F465C043
S11302E0089709F465C082E088BB86B3807F90E0FC
S11302F095958795959587959595879595958795E2
S11303008130910509F457C08230910509F456C033
S11303108430910509F455C0089709F455C084E068
S113032088BB86B3807F90E0959587959595879552
S113033095958795959587958130910509F447C0E2
S11303408230910509F446C08430910509F445C012
S1130350089709F445C088E088BB86B3807F90E0A5
S11303609595879595958795959587959595879571
S113037081309105C1F182309105C1F1843091053C
S1130380C1F10897C9F12FEF86E791E02150804031
S11303909040E1F700C0000084E190E0089581E31B
S11303A090E0089582E390E0089583E390E0089557
S11303B081E490E0089584E390E0089585E390E07B
S11303C0089586E390E0089582E490E0089587E339
S11303D090E0089588E390E0089589E390E008951B
S11303E083E490E0089583E290E0089580E390E050
S11303F008958AE290E0089584E490E00895CF930C
S1130400DF9300D000D000D0CDB7DEB70E94460104
S11304100E944E010E94A30084E690E00E94BC006A
S113042061E080E00E94990084E790E00E94BC00B3
S11304302FEF83ED90E3215080409040E1F700C01E
S113044000000E94A30000E010E00F2EF4EDCF2E78
S1130450F0E0DF2EF02D7E0127E0E20EF11CA12C4E
S1130460B12C0E9457018431E1F3813411F584E801
S113047090E00E94BC0061E080E00E94990085E960
S113048090E00E94BC000E9404018FEF93ED20E3F2
S1130490815090402040E1F700C000000E94A3007A
S11304A081EA90E00E94BC0061E080E00E94990033
S11304B03BC0E1E0F0E0EC0FFD1FE00FF11F808393
S11304C00E94A7008FEF92E527E0815090402040E2
S11304D0E1F700C000000F5F1F4F26C091918D917E
S11304E0981302C02F5F3F4FEE15FF05B9F7263072
S11304F0310599F40E94A30084EB90E00E94BC00B3
S113050081E085BB8FEF99E628E18150904020403F
S1130510E1F700C0000015BAA4CF0E94A30083EC49
S113052090E00E94BC009DCF063011050CF499CFD9
S1130530FE013196D6012A2D3B2DD0CF97FB072EF5
S113054016F4009407D077FD09D00E94B20207FC8C
S113055005D03EF4909581959F4F089570956195CF
S11305607F4F0895AA1BBB1B51E107C0AA1FBB1FE5
S1130570A617B70710F0A61BB70B881F991F5A952B
S1130580A9F780959095BC01CD0108958F929F9213
S1130590AF92BF92CF92DF92EF92FF92CF93DF930D
S11305A0EC01688179818A819B81611571058105DE
S11305B0910521F464E279ED8BE597E02DE133EFC9
S11305C041E050E00E94220349015A019B01AC0121
S11305D0A7EAB1E40E9441036B017C01ACEEB4EFE5
S11305E0A50194010E944F03DC01CB018C0D9D1DDC
S11305F0AE1DBF1DB7FF03C00197A109B048888392
S11306009983AA83BB839F77DF91CF91FF90EF906B
S1130610DF90CF90BF90AF909F908F9008950E94ED
S1130620C602089580E690E00E94C6020895A0E004
S1130630B0E08093600090936100A0936200B09357
S113064063000895052E97FB1EF400940E9439035D
S113065057FD07D00E94540307FC03D04EF40C94BA
S1130660390350954095309521953F4F4F4F5F4F3B
S1130670089590958095709561957F4F8F4F9F4F0A
S113068008950E947603A59F900DB49F900DA49F9A
S1130690800D911D11240895B7FF0C9441030E940D
S11306A04103821B930B0895A1E21A2EAA1BBB1BC4
S11306B0FD010DC0AA1FBB1FEE1FFF1FA217B3072A
S11306C0E407F50720F0A21BB30BE40BF50B661F40
S11306D0771F881F991F1A9469F760957095809504
S11306E090959B01AC01BD01CF010895A29FB0017B
S11306F0B39FC001A39F700D811D1124911DB29F52
S1110700700D811D1124911D0895F894FFCFF2
S113070E0100000050726573696F6E6520412070A0
S113071E617261006F6274656E657220756E612020
S113072E6B657900556E61206B6579207365206564
S113073E6E76696F006120737520656D61696C2E2C
S113074E00496E6772657365206C6120636C617617
S113075E652E2000436C61766520636F727265634B
S113076E746100436C61766520696E636F727265A5
S107077E637461003B
S9030000FC
