S0160000436F6E7461646F72436172726F732E737265636A
S11300000C942A000C9449000C9489000C94470029
S11300100C9447000C9447000C9447000C94470040
S11300200C9447000C9447000C9447000C94470030
S11300300C9447000C9447000C9447000C94470020
S11300400C9447000C9447000C9447000C94470010
S11300500C94470011241FBECFE5D8E0DEBFCDBF0E
S113006010E0A0E6B0E0E0EFF2E002C005900D92EF
S1130070A637B107D9F720E0A6E7B0E001C01D928A
S1130080A837B207E1F70E9430010C9476010C9472
S113009000001F920F920FB60F9211242F933F93DB
S11300A08F939F932091760030917700283C3105FF
S11300B071F480916000909161000197B9F41092FD
S11300C06100109260002115310551F00FC0211517
S11300D0310561F48091600090916100892B31F4C5
S11300E081E090E0909361008093600080916000D3
S11300F090916100820F931F909377008093760014
S11301009F918F913F912F910F900FBE0F901F9051
S113011018951F920F920FB60F9211242F933F93AD
S11301208F939F938091760090917700009791F43C
S113013080916000909161000197D9F41092610060
S1130140109260008091760090917700883C910530
S113015051F00FC0883C910561F48091600090914A
S11301606100892B31F481E090E0909361008093E9
S1130170600080917600909177002091600030912A
S11301806100821B930B90937700809376009F917C
S11301908F913F912F910F900FBE0F901F90189544
S11301A0EF92FF920F931F93CF93DF93FC012AE00A
S11301B030E0B9010E944E018C01CB01B9010E94CB
S11301C04E017C01CF0164E670E00E944E01CB0138
S11301D0B9010E944E01FC0123E030E071E0C80146
S11301E0880F991FEC01CE59DF4F62E0D701AA0FA7
S11301F0BB1FAE59BF4F54E0EE0FFF1FEE59FF4F28
S11302007BBB488145BB4FE788E391E04150804088
S11302109040E1F700C000006BBB4C9145BB4FE739
S113022088E391E0415080409040E1F700C0000035
S11302305BBB408145BB4FE788E391E04150804080
S11302409040E1F700C0000021503109C9F680E078
S113025090E0DF91CF911F910F91FF90EF9008955F
S113026078948FE784BB8FE18ABB83E087BB80EC03
S11302708BBF8FE085BFD1E0C2E080917600909182
S113028077000E94D0008091760090917700883C9E
S1130290910514F4C8BBF1CFD8BBEFCF97FB072E61
S11302A016F4009407D077FD09D00E94620107FC80
S11302B005D03EF4909581959F4F08957095619572
S11302C07F4F0895AA1BBB1B51E107C0AA1FBB1F88
S11302D0A617B70710F0A61BB70B881F991F5A95CE
S11302E0A9F780959095BC01CD010895F894FFCFAE
S11302F001004000790024003000190012000300BE
S109030078000000180063
S9030000FC
